{
    "add_d0g0v0_Shanghai": {
        "_info": {
            "comment": "Ori Pomerantz qbzzt1@gmail.com",
            "filling-rpc-server": "evm version 1.11.4-unstable-e14043db-20230308",
            "filling-tool-version": "retesteth-0.3.0-shanghai+commit.fd2c0a83.Linux.g++",
            "generatedTestHash": "dc4687b4e526bcd4fe23eac73894cacf8ba5b9a139363de0073eb67db0df36fb",
            "lllcversion": "Version: 0.5.14-develop.2022.7.30+commit.a096d7a9.Linux.g++",
            "solidity": "Version: 0.8.17+commit.8df45f5f.Linux.g++",
            "source": "src/GeneralStateTestsFiller/VMTests/vmArithmeticTest/addFiller.yml",
            "sourceHash": "78afea990a2d534831acc4883b9ff6e81d560091942db7234232d68fdbf1c33e"
        },
        "blocks": [
            {
                "blockHeader": {
                    "baseFeePerGas": "0x0a",
                    "bloom": "0x00000000000000000000000000000000000000000000000000000000000000000000000000000000000000000000000000000000000000000000000000000000000000000000000000000000000000000000000000000000000000000000000000000000000000000000000000000000000000000000000000000000000000000000000000000000000000000000000000000000000000000000000000000000000000000000000000000000000000000000000000000000000000000000000000000000000000000000000000000000000000000000000000000000000000000000000000000000000000000000000000000000000000000000000000000000",
                    "coinbase": "0x2adc25665018aa1fe0e6bc666dac8fc2697ff9ba",
                    "difficulty": "0x00",
                    "extraData": "0x00",
                    "gasLimit": "0x05f5e100",
                    "gasUsed": "0xb36e",
                    "hash": "0xc52b87215ff3cea57b70b9e2104f7be6877a00eb98a1f10e8f4941aaefc90ae6",
                    "mixHash": "0x0000000000000000000000000000000000000000000000000000000000020000",
                    "nonce": "0x0000000000000000",
                    "number": "0x01",
                    "parentHash": "0x6d4b3f3898786350e8b7bccdce7f1d4a567c5594699de8cd7884e948d019672c",
                    "receiptTrie": "0x7fb0f40c31c7596ff1847f39f294a466a231fa3d722c78408d6dcff53a3bcdb4",
                    "stateRoot": "0x6e9dccb57a15e2885ff1193da0db98cbaaac218bf3a0abeb0c3ceff966de2830",
                    "timestamp": "0x03e8",
                    "transactionsTrie": "0x86be9b5d20254e0393853c82e5534d9d9f8486f1fd2ed4f4c0a169339c79bd1c",
                    "uncleHash": "0x1dcc4de8dec75d7aab85b567b6ccd41ad312451b948a7413f0a142fd40d49347",
                    "withdrawalsRoot": "0x56e81f171bcc55a6ff8345e692c0f86e5b48e01b996cadc001622fb5e363b421"
                },
                "rlp": "0xf902a5f90217a06d4b3f3898786350e8b7bccdce7f1d4a567c5594699de8cd7884e948d019672ca01dcc4de8dec75d7aab85b567b6ccd41ad312451b948a7413f0a142fd40d49347942adc25665018aa1fe0e6bc666dac8fc2697ff9baa06e9dccb57a15e2885ff1193da0db98cbaaac218bf3a0abeb0c3ceff966de2830a086be9b5d20254e0393853c82e5534d9d9f8486f1fd2ed4f4c0a169339c79bd1ca07fb0f40c31c7596ff1847f39f294a466a231fa3d722c78408d6dcff53a3bcdb4b901000000000000000000000000000000000000000000000000000000000000000000000000000000000000000000000000000000000000000000000000000000000000000000000000000000000000000000000000000000000000000000000000000000000000000000000000000000000000000000000000000000000000000000000000000000000000000000000000000000000000000000000000000000000000000000000000000000000000000000000000000000000000000000000000000000000000000000000000000000000000000000000000000000000000000000000000000000000000000000000000000000000000000000000000000000000080018405f5e10082b36e8203e800a000000000000000000000000000000000000000000000000000000000000200008800000000000000000aa056e81f171bcc55a6ff8345e692c0f86e5b48e01b996cadc001622fb5e363b421f887f885800a8404c4b40094cccccccccccccccccccccccccccccccccccccccc01a4693c613900000000000000000000000000000000000000000000000000000000000000001ba0e8ff56322287185f6afd3422a825b47bf5c1a4ccf0dc0389cdc03f7c1c32b7eaa0776b02f9f5773238d3ff36b74a123f409cd6420908d7855bbe4c8ff63e00d698c0c0",
                "transactions": [
                    {
                        "data": "0x693c61390000000000000000000000000000000000000000000000000000000000000000",
                        "gasLimit": "0x04c4b400",
                        "gasPrice": "0x0a",
                        "nonce": "0x00",
                        "r": "0xe8ff56322287185f6afd3422a825b47bf5c1a4ccf0dc0389cdc03f7c1c32b7ea",
                        "s": "0x776b02f9f5773238d3ff36b74a123f409cd6420908d7855bbe4c8ff63e00d698",
                        "sender": "0xa94f5374fce5edbc8e2a8697c15331677e6ebf0b",
                        "to": "0xcccccccccccccccccccccccccccccccccccccccc",
                        "v": "0x1b",
                        "value": "0x01"
                    }
                ],
                "uncleHeaders": [],
                "withdrawals": []
            }
        ],
        "genesisBlockHeader": {
            "baseFeePerGas": "0x0b",
            "bloom": "0x00000000000000000000000000000000000000000000000000000000000000000000000000000000000000000000000000000000000000000000000000000000000000000000000000000000000000000000000000000000000000000000000000000000000000000000000000000000000000000000000000000000000000000000000000000000000000000000000000000000000000000000000000000000000000000000000000000000000000000000000000000000000000000000000000000000000000000000000000000000000000000000000000000000000000000000000000000000000000000000000000000000000000000000000000000000",
            "coinbase": "0x2adc25665018aa1fe0e6bc666dac8fc2697ff9ba",
            "difficulty": "0x00",
            "extraData": "0x00",
            "gasLimit": "0x05f5e100",
            "gasUsed": "0x00",
            "hash": "0x6d4b3f3898786350e8b7bccdce7f1d4a567c5594699de8cd7884e948d019672c",
            "mixHash": "0x0000000000000000000000000000000000000000000000000000000000020000",
            "nonce": "0x0000000000000000",
            "number": "0x00",
            "parentHash": "0x0000000000000000000000000000000000000000000000000000000000000000",
            "receiptTrie": "0x56e81f171bcc55a6ff8345e692c0f86e5b48e01b996cadc001622fb5e363b421",
            "stateRoot": "0xf3d3787e33cb7913a304f188002f59e7b7a1e1fe3a712988c7092a213f8c2e8f",
            "timestamp": "0x00",
            "transactionsTrie": "0x56e81f171bcc55a6ff8345e692c0f86e5b48e01b996cadc001622fb5e363b421",
            "uncleHash": "0x1dcc4de8dec75d7aab85b567b6ccd41ad312451b948a7413f0a142fd40d49347",
            "withdrawalsRoot": "0x56e81f171bcc55a6ff8345e692c0f86e5b48e01b996cadc001622fb5e363b421"
        },
        "genesisRLP": "0xf90219f90213a00000000000000000000000000000000000000000000000000000000000000000a01dcc4de8dec75d7aab85b567b6ccd41ad312451b948a7413f0a142fd40d49347942adc25665018aa1fe0e6bc666dac8fc2697ff9baa0f3d3787e33cb7913a304f188002f59e7b7a1e1fe3a712988c7092a213f8c2e8fa056e81f171bcc55a6ff8345e692c0f86e5b48e01b996cadc001622fb5e363b421a056e81f171bcc55a6ff8345e692c0f86e5b48e01b996cadc001622fb5e363b421b901000000000000000000000000000000000000000000000000000000000000000000000000000000000000000000000000000000000000000000000000000000000000000000000000000000000000000000000000000000000000000000000000000000000000000000000000000000000000000000000000000000000000000000000000000000000000000000000000000000000000000000000000000000000000000000000000000000000000000000000000000000000000000000000000000000000000000000000000000000000000000000000000000000000000000000000000000000000000000000000000000000000000000000000000000000000080808405f5e100808000a000000000000000000000000000000000000000000000000000000000000200008800000000000000000ba056e81f171bcc55a6ff8345e692c0f86e5b48e01b996cadc001622fb5e363b421c0c0c0",
        "lastblockhash": "0xc52b87215ff3cea57b70b9e2104f7be6877a00eb98a1f10e8f4941aaefc90ae6",
        "network": "Shanghai",
        "postState": {
            "0x0000000000000000000000000000000000000100": {
                "balance": "0x0ba1a9ce0ba1a9ce",
                "code": "0x7fffffffffffffffffffffffffffffffffffffffffffffffffffffffffffffffff7fffffffffffffffffffffffffffffffffffffffffffffffffffffffffffffffff0160005500",
                "nonce": "0x00",
                "storage": {
                    "0x00": "0xfffffffffffffffffffffffffffffffffffffffffffffffffffffffffffffffe"
                }
            },
            "0x0000000000000000000000000000000000000101": {
                "balance": "0x0ba1a9ce0ba1a9ce",
                "code": "0x60047fffffffffffffffffffffffffffffffffffffffffffffffffffffffffffffffff0160005500",
                "nonce": "0x00",
                "storage": {}
            },
            "0x0000000000000000000000000000000000000102": {
                "balance": "0x0ba1a9ce0ba1a9ce",
                "code": "0x60017fffffffffffffffffffffffffffffffffffffffffffffffffffffffffffffffff0160005500",
                "nonce": "0x00",
                "storage": {}
            },
            "0x0000000000000000000000000000000000000103": {
                "balance": "0x0ba1a9ce0ba1a9ce",
                "code": "0x600060000160005500",
                "nonce": "0x00",
                "storage": {}
            },
            "0x0000000000000000000000000000000000000104": {
                "balance": "0x0ba1a9ce0ba1a9ce",
                "code": "0x7fffffffffffffffffffffffffffffffffffffffffffffffffffffffffffffffff60010160005500",
                "nonce": "0x00",
                "storage": {}
            },
            "0xa94f5374fce5edbc8e2a8697c15331677e6ebf0b": {
                "balance": "0x0ba1a9ce0b9aa781",
                "code": "0x",
                "nonce": "0x01",
                "storage": {}
            },
            "0xcccccccccccccccccccccccccccccccccccccccc": {
                "balance": "0x0ba1a9ce0ba1a9cf",
                "code": "0x600060006000600060006004356101000162fffffff100",
                "nonce": "0x00",
                "storage": {}
            }
        },
        "pre": {
            "0x0000000000000000000000000000000000000100": {
                "balance": "0x0ba1a9ce0ba1a9ce",
                "code": "0x7fffffffffffffffffffffffffffffffffffffffffffffffffffffffffffffffff7fffffffffffffffffffffffffffffffffffffffffffffffffffffffffffffffff0160005500",
                "nonce": "0x00",
                "storage": {}
            },
            "0x0000000000000000000000000000000000000101": {
                "balance": "0x0ba1a9ce0ba1a9ce",
                "code": "0x60047fffffffffffffffffffffffffffffffffffffffffffffffffffffffffffffffff0160005500",
                "nonce": "0x00",
                "storage": {}
            },
            "0x0000000000000000000000000000000000000102": {
                "balance": "0x0ba1a9ce0ba1a9ce",
                "code": "0x60017fffffffffffffffffffffffffffffffffffffffffffffffffffffffffffffffff0160005500",
                "nonce": "0x00",
                "storage": {}
            },
            "0x0000000000000000000000000000000000000103": {
                "balance": "0x0ba1a9ce0ba1a9ce",
                "code": "0x600060000160005500",
                "nonce": "0x00",
                "storage": {}
            },
            "0x0000000000000000000000000000000000000104": {
                "balance": "0x0ba1a9ce0ba1a9ce",
                "code": "0x7fffffffffffffffffffffffffffffffffffffffffffffffffffffffffffffffff60010160005500",
                "nonce": "0x00",
                "storage": {}
            },
            "0xa94f5374fce5edbc8e2a8697c15331677e6ebf0b": {
                "balance": "0x0ba1a9ce0ba1a9ce",
                "code": "0x",
                "nonce": "0x00",
                "storage": {}
            },
            "0xcccccccccccccccccccccccccccccccccccccccc": {
                "balance": "0x0ba1a9ce0ba1a9ce",
                "code": "0x600060006000600060006004356101000162fffffff100",
                "nonce": "0x00",
                "storage": {}
            }
        },
        "sealEngine": "NoProof"
    }
}
